{"abi":[{"type":"constructor","inputs":[{"name":"_owner","type":"address","internalType":"address"}],"stateMutability":"nonpayable"},{"type":"receive","stateMutability":"payable"},{"type":"function","name":"greeting","inputs":[],"outputs":[{"name":"","type":"string","internalType":"string"}],"stateMutability":"view"},{"type":"function","name":"owner","inputs":[],"outputs":[{"name":"","type":"address","internalType":"address"}],"stateMutability":"view"},{"type":"function","name":"premium","inputs":[],"outputs":[{"name":"","type":"bool","internalType":"bool"}],"stateMutability":"view"},{"type":"function","name":"setGreeting","inputs":[{"name":"_newGreeting","type":"string","internalType":"string"}],"outputs":[],"stateMutability":"payable"},{"type":"function","name":"totalCounter","inputs":[],"outputs":[{"name":"","type":"uint256","internalType":"uint256"}],"stateMutability":"view"},{"type":"function","name":"userGreetingCounter","inputs":[{"name":"","type":"address","internalType":"address"}],"outputs":[{"name":"","type":"uint256","internalType":"uint256"}],"stateMutability":"view"},{"type":"function","name":"withdraw","inputs":[],"outputs":[],"stateMutability":"nonpayable"},{"type":"event","name":"GreetingChange","inputs":[{"name":"greetingSetter","type":"address","indexed":true,"internalType":"address"},{"name":"newGreeting","type":"string","indexed":false,"internalType":"string"},{"name":"premium","type":"bool","indexed":false,"internalType":"bool"},{"name":"value","type":"uint256","indexed":false,"internalType":"uint256"}],"anonymous":false}],"bytecode":{"object":"0x60a06040526040518060400160405280601c81526020017f4275696c64696e6720556e73746f707061626c652041707073212121000000008152505f90816100479190610309565b505f60015f6101000a81548160ff0219169083151502179055505f600255348015610070575f5ffd5b5060405161129238038061129283398181016040528101906100929190610436565b8073ffffffffffffffffffffffffffffffffffffffff1660808173ffffffffffffffffffffffffffffffffffffffff168152505050610461565b5f81519050919050565b7f4e487b71000000000000000000000000000000000000000000000000000000005f52604160045260245ffd5b7f4e487b71000000000000000000000000000000000000000000000000000000005f52602260045260245ffd5b5f600282049050600182168061014757607f821691505b60208210810361015a57610159610103565b5b50919050565b5f819050815f5260205f209050919050565b5f6020601f8301049050919050565b5f82821b905092915050565b5f600883026101bc7fffffffffffffffffffffffffffffffffffffffffffffffffffffffffffffffff82610181565b6101c68683610181565b95508019841693508086168417925050509392505050565b5f819050919050565b5f819050919050565b5f61020a610205610200846101de565b6101e7565b6101de565b9050919050565b5f819050919050565b610223836101f0565b61023761022f82610211565b84845461018d565b825550505050565b5f5f905090565b61024e61023f565b61025981848461021a565b505050565b5b8181101561027c576102715f82610246565b60018101905061025f565b5050565b601f8211156102c15761029281610160565b61029b84610172565b810160208510156102aa578190505b6102be6102b685610172565b83018261025e565b50505b505050565b5f82821c905092915050565b5f6102e15f19846008026102c6565b1980831691505092915050565b5f6102f983836102d2565b9150826002028217905092915050565b610312826100cc565b67ffffffffffffffff81111561032b5761032a6100d6565b5b6103358254610130565b610340828285610280565b5f60209050601f831160018114610371575f841561035f578287015190505b61036985826102ee565b8655506103d0565b601f19841661037f86610160565b5f5b828110156103a657848901518255600182019150602085019450602081019050610381565b868310156103c357848901516103bf601f8916826102d2565b8355505b6001600288020188555050505b505050505050565b5f5ffd5b5f73ffffffffffffffffffffffffffffffffffffffff82169050919050565b5f610405826103dc565b9050919050565b610415816103fb565b811461041f575f5ffd5b50565b5f815190506104308161040c565b92915050565b5f6020828403121561044b5761044a6103d8565b5b5f61045884828501610422565b91505092915050565b608051610e0b6104875f395f81816101960152818161022501526102ef0152610e0b5ff3fe608060405260043610610073575f3560e01c8063a41368621161004d578063a4136862146100e8578063cea49c3c14610104578063e0a73a9314610140578063ef690cc01461016a5761007a565b80633ccfd60b1461007e5780638da5cb5b1461009457806397feba9d146100be5761007a565b3661007a57005b5f5ffd5b348015610089575f5ffd5b50610092610194565b005b34801561009f575f5ffd5b506100a86102ed565b6040516100b59190610649565b60405180910390f35b3480156100c9575f5ffd5b506100d2610311565b6040516100df919061067a565b60405180910390f35b61010260048036038101906100fd91906107e0565b610317565b005b34801561010f575f5ffd5b5061012a60048036038101906101259190610851565b610471565b604051610137919061067a565b60405180910390f35b34801561014b575f5ffd5b50610154610486565b6040516101619190610896565b60405180910390f35b348015610175575f5ffd5b5061017e610498565b60405161018b919061090f565b60405180910390f35b7f000000000000000000000000000000000000000000000000000000000000000073ffffffffffffffffffffffffffffffffffffffff163373ffffffffffffffffffffffffffffffffffffffff1614610222576040517f08c379a000000000000000000000000000000000000000000000000000000000815260040161021990610979565b60405180910390fd5b5f7f000000000000000000000000000000000000000000000000000000000000000073ffffffffffffffffffffffffffffffffffffffff1647604051610267906109c4565b5f6040518083038185875af1925050503d805f81146102a1576040519150601f19603f3d011682016040523d82523d5f602084013e6102a6565b606091505b50509050806102ea576040517f08c379a00000000000000000000000000000000000000000000000000000000081526004016102e190610a22565b60405180910390fd5b50565b7f000000000000000000000000000000000000000000000000000000000000000081565b60025481565b6103556040518060400160405280601481526020017f53657474696e67206e6577206772656574696e67000000000000000000000000815250610523565b61035e81610523565b805f908161036c9190610c3d565b50600160025f82825461037f9190610d39565b92505081905550600160035f3373ffffffffffffffffffffffffffffffffffffffff1673ffffffffffffffffffffffffffffffffffffffff1681526020019081526020015f205f8282546103d39190610d39565b925050819055505f341115610400576001805f6101000a81548160ff02191690831515021790555061041a565b5f60015f6101000a81548160ff0219169083151502179055505b3373ffffffffffffffffffffffffffffffffffffffff167f94cbd7e04dca26a7667654f6448b2ca0a40fec602118dc5fd8c82b9cf3c645ad825f34113460405161046693929190610d6c565b60405180910390a250565b6003602052805f5260405f205f915090505481565b60015f9054906101000a900460ff1681565b5f80546104a490610a6d565b80601f01602080910402602001604051908101604052809291908181526020018280546104d090610a6d565b801561051b5780601f106104f25761010080835404028352916020019161051b565b820191905f5260205f20905b8154815290600101906020018083116104fe57829003601f168201915b505050505081565b6105b981604051602401610537919061090f565b6040516020818303038152906040527f41304fac000000000000000000000000000000000000000000000000000000007bffffffffffffffffffffffffffffffffffffffffffffffffffffffff19166020820180517bffffffffffffffffffffffffffffffffffffffffffffffffffffffff83818316178352505050506105bc565b50565b6105d3816105cb6105d66105f5565b63ffffffff16565b50565b5f6a636f6e736f6c652e6c6f6790505f5f835160208501845afa505050565b610600819050919050565b610608610da8565b565b5f73ffffffffffffffffffffffffffffffffffffffff82169050919050565b5f6106338261060a565b9050919050565b61064381610629565b82525050565b5f60208201905061065c5f83018461063a565b92915050565b5f819050919050565b61067481610662565b82525050565b5f60208201905061068d5f83018461066b565b92915050565b5f604051905090565b5f5ffd5b5f5ffd5b5f5ffd5b5f5ffd5b5f601f19601f8301169050919050565b7f4e487b71000000000000000000000000000000000000000000000000000000005f52604160045260245ffd5b6106f2826106ac565b810181811067ffffffffffffffff82111715610711576107106106bc565b5b80604052505050565b5f610723610693565b905061072f82826106e9565b919050565b5f67ffffffffffffffff82111561074e5761074d6106bc565b5b610757826106ac565b9050602081019050919050565b828183375f83830152505050565b5f61078461077f84610734565b61071a565b9050828152602081018484840111156107a05761079f6106a8565b5b6107ab848285610764565b509392505050565b5f82601f8301126107c7576107c66106a4565b5b81356107d7848260208601610772565b91505092915050565b5f602082840312156107f5576107f461069c565b5b5f82013567ffffffffffffffff811115610812576108116106a0565b5b61081e848285016107b3565b91505092915050565b61083081610629565b811461083a575f5ffd5b50565b5f8135905061084b81610827565b92915050565b5f602082840312156108665761086561069c565b5b5f6108738482850161083d565b91505092915050565b5f8115159050919050565b6108908161087c565b82525050565b5f6020820190506108a95f830184610887565b92915050565b5f81519050919050565b5f82825260208201905092915050565b8281835e5f83830152505050565b5f6108e1826108af565b6108eb81856108b9565b93506108fb8185602086016108c9565b610904816106ac565b840191505092915050565b5f6020820190508181035f83015261092781846108d7565b905092915050565b7f4e6f7420746865204f776e6572000000000000000000000000000000000000005f82015250565b5f610963600d836108b9565b915061096e8261092f565b602082019050919050565b5f6020820190508181035f83015261099081610957565b9050919050565b5f81905092915050565b50565b5f6109af5f83610997565b91506109ba826109a1565b5f82019050919050565b5f6109ce826109a4565b9150819050919050565b7f4661696c656420746f2073656e642045746865720000000000000000000000005f82015250565b5f610a0c6014836108b9565b9150610a17826109d8565b602082019050919050565b5f6020820190508181035f830152610a3981610a00565b9050919050565b7f4e487b71000000000000000000000000000000000000000000000000000000005f52602260045260245ffd5b5f6002820490506001821680610a8457607f821691505b602082108103610a9757610a96610a40565b5b50919050565b5f819050815f5260205f209050919050565b5f6020601f8301049050919050565b5f82821b905092915050565b5f60088302610af97fffffffffffffffffffffffffffffffffffffffffffffffffffffffffffffffff82610abe565b610b038683610abe565b95508019841693508086168417925050509392505050565b5f819050919050565b5f610b3e610b39610b3484610662565b610b1b565b610662565b9050919050565b5f819050919050565b610b5783610b24565b610b6b610b6382610b45565b848454610aca565b825550505050565b5f5f905090565b610b82610b73565b610b8d818484610b4e565b505050565b5b81811015610bb057610ba55f82610b7a565b600181019050610b93565b5050565b601f821115610bf557610bc681610a9d565b610bcf84610aaf565b81016020851015610bde578190505b610bf2610bea85610aaf565b830182610b92565b50505b505050565b5f82821c905092915050565b5f610c155f1984600802610bfa565b1980831691505092915050565b5f610c2d8383610c06565b9150826002028217905092915050565b610c46826108af565b67ffffffffffffffff811115610c5f57610c5e6106bc565b5b610c698254610a6d565b610c74828285610bb4565b5f60209050601f831160018114610ca5575f8415610c93578287015190505b610c9d8582610c22565b865550610d04565b601f198416610cb386610a9d565b5f5b82811015610cda57848901518255600182019150602085019450602081019050610cb5565b86831015610cf75784890151610cf3601f891682610c06565b8355505b6001600288020188555050505b505050505050565b7f4e487b71000000000000000000000000000000000000000000000000000000005f52601160045260245ffd5b5f610d4382610662565b9150610d4e83610662565b9250828201905080821115610d6657610d65610d0c565b5b92915050565b5f6060820190508181035f830152610d8481866108d7565b9050610d936020830185610887565b610da0604083018461066b565b949350505050565b7f4e487b71000000000000000000000000000000000000000000000000000000005f52605160045260245ffdfea26469706673582212202d9dde88083e046065ccf068cd2f09a6c864f4e7ca5338f0c20d10a6ef099b9a64736f6c634300081c0033","linkReferences":{}},"methodIdentifiers":{"greeting()":"ef690cc0","owner()":"8da5cb5b","premium()":"e0a73a93","setGreeting(string)":"a4136862","totalCounter()":"97feba9d","userGreetingCounter(address)":"cea49c3c","withdraw()":"3ccfd60b"},"id":1}